{
  "abi": [
    {
      "type": "constructor",
      "inputs": [
        {
          "name": "_attestationCenter",
          "type": "address",
          "internalType": "address"
        },
        {
          "name": "_insuranceCompany",
          "type": "address",
          "internalType": "address"
        },
        {
          "name": "_stakingPool",
          "type": "address",
          "internalType": "address"
        }
      ],
      "stateMutability": "nonpayable"
    },
    {
      "type": "function",
      "name": "afterTaskSubmission",
      "inputs": [
        {
          "name": "_taskInfo",
          "type": "tuple",
          "internalType": "struct IAttestationCenter.TaskInfo",
          "components": [
            {
              "name": "proofOfTask",
              "type": "string",
              "internalType": "string"
            },
            {
              "name": "data",
              "type": "bytes",
              "internalType": "bytes"
            },
            {
              "name": "taskPerformer",
              "type": "address",
              "internalType": "address"
            },
            {
              "name": "taskDefinitionId",
              "type": "uint16",
              "internalType": "uint16"
            }
          ]
        },
        {
          "name": "_isApproved",
          "type": "bool",
          "internalType": "bool"
        },
        {
          "name": "",
          "type": "bytes",
          "internalType": "bytes"
        },
        {
          "name": "",
          "type": "uint256[2]",
          "internalType": "uint256[2]"
        },
        {
          "name": "",
          "type": "uint256[]",
          "internalType": "uint256[]"
        }
      ],
      "outputs": [],
      "stateMutability": "nonpayable"
    },
    {
      "type": "function",
      "name": "attestationCenter",
      "inputs": [],
      "outputs": [
        {
          "name": "",
          "type": "address",
          "internalType": "address"
        }
      ],
      "stateMutability": "view"
    },
    {
      "type": "function",
      "name": "beforeTaskSubmission",
      "inputs": [
        {
          "name": "_taskInfo",
          "type": "tuple",
          "internalType": "struct IAttestationCenter.TaskInfo",
          "components": [
            {
              "name": "proofOfTask",
              "type": "string",
              "internalType": "string"
            },
            {
              "name": "data",
              "type": "bytes",
              "internalType": "bytes"
            },
            {
              "name": "taskPerformer",
              "type": "address",
              "internalType": "address"
            },
            {
              "name": "taskDefinitionId",
              "type": "uint16",
              "internalType": "uint16"
            }
          ]
        },
        {
          "name": "_isApproved",
          "type": "bool",
          "internalType": "bool"
        },
        {
          "name": "_tpSignature",
          "type": "bytes",
          "internalType": "bytes"
        },
        {
          "name": "_taSignature",
          "type": "uint256[2]",
          "internalType": "uint256[2]"
        },
        {
          "name": "_operatorIds",
          "type": "uint256[]",
          "internalType": "uint256[]"
        }
      ],
      "outputs": [],
      "stateMutability": "nonpayable"
    },
    {
      "type": "function",
      "name": "depositToEscrow",
      "inputs": [],
      "outputs": [],
      "stateMutability": "payable"
    },
    {
      "type": "function",
      "name": "getEscrowBalance",
      "inputs": [],
      "outputs": [
        {
          "name": "",
          "type": "uint256",
          "internalType": "uint256"
        }
      ],
      "stateMutability": "view"
    },
    {
      "type": "function",
      "name": "insuranceCompany",
      "inputs": [],
      "outputs": [
        {
          "name": "",
          "type": "address",
          "internalType": "address"
        }
      ],
      "stateMutability": "view"
    },
    {
      "type": "function",
      "name": "providerBalances",
      "inputs": [
        {
          "name": "",
          "type": "address",
          "internalType": "address"
        }
      ],
      "outputs": [
        {
          "name": "",
          "type": "uint256",
          "internalType": "uint256"
        }
      ],
      "stateMutability": "view"
    },
    {
      "type": "function",
      "name": "stakingPool",
      "inputs": [],
      "outputs": [
        {
          "name": "",
          "type": "address",
          "internalType": "address"
        }
      ],
      "stateMutability": "view"
    },
    {
      "type": "function",
      "name": "totalEscrowBalance",
      "inputs": [],
      "outputs": [
        {
          "name": "",
          "type": "uint256",
          "internalType": "uint256"
        }
      ],
      "stateMutability": "view"
    },
    {
      "type": "function",
      "name": "withdrawEscrow",
      "inputs": [
        {
          "name": "amount",
          "type": "uint256",
          "internalType": "uint256"
        }
      ],
      "outputs": [],
      "stateMutability": "nonpayable"
    },
    {
      "type": "event",
      "name": "ClaimPaid",
      "inputs": [
        {
          "name": "provider",
          "type": "address",
          "indexed": true,
          "internalType": "address"
        },
        {
          "name": "amount",
          "type": "uint256",
          "indexed": false,
          "internalType": "uint256"
        }
      ],
      "anonymous": false
    },
    {
      "type": "event",
      "name": "Deposited",
      "inputs": [
        {
          "name": "insurer",
          "type": "address",
          "indexed": true,
          "internalType": "address"
        },
        {
          "name": "amount",
          "type": "uint256",
          "indexed": false,
          "internalType": "uint256"
        }
      ],
      "anonymous": false
    },
    {
      "type": "event",
      "name": "EscrowWithdrawn",
      "inputs": [
        {
          "name": "insurer",
          "type": "address",
          "indexed": true,
          "internalType": "address"
        },
        {
          "name": "amount",
          "type": "uint256",
          "indexed": false,
          "internalType": "uint256"
        }
      ],
      "anonymous": false
    }
  ],
  "bytecode": {
    "object": "0x6080604052348015600e575f80fd5b50604051610900380380610900833981016040819052602b916085565b5f80546001600160a01b039485166001600160a01b03199182161790915560018054938516938216939093179092556002805491909316911617905560be565b80516001600160a01b03811681146080575f80fd5b919050565b5f805f606084860312156096575f80fd5b609d84606b565b925060a960208501606b565b915060b560408501606b565b90509250925092565b610835806100cb5f395ff3fe60806040526004361061008f575f3560e01c8063c56e610e11610057578063c56e610e14610154578063d78f51b914610168578063d92807a214610187578063dd1a5387146101a5578063fe74edbd146101c4575f80fd5b80630c56ae3b1461009357806328ac7f2c146100cf5780633eb5241d14610108578063502f5bd014610112578063876512d014610135575b5f80fd5b34801561009e575f80fd5b506002546100b2906001600160a01b031681565b6040516001600160a01b0390911681526020015b60405180910390f35b3480156100da575f80fd5b506100fa6100e93660046105bd565b60046020525f908152604090205481565b6040519081526020016100c6565b6101106101d9565b005b34801561011d575f80fd5b5061011061012c36600461067b565b50505050505050565b348015610140575f80fd5b5061011061014f366004610741565b6102cf565b34801561015f575f80fd5b506003546100fa565b348015610173575f80fd5b506001546100b2906001600160a01b031681565b348015610192575f80fd5b505f546100b2906001600160a01b031681565b3480156101b0575f80fd5b506101106101bf36600461067b565b6103e7565b3480156101cf575f80fd5b506100fa60035481565b6001546001600160a01b031633146102295760405162461bcd60e51b815260206004820152600e60248201526d139bdd08185d5d1a1bdc9a5e995960921b60448201526064015b60405180910390fd5b5f34116102825760405162461bcd60e51b815260206004820152602160248201527f4465706f736974206d7573742062652067726561746572207468616e207a65726044820152606f60f81b6064820152608401610220565b3460035f828254610293919061076c565b909155505060405134815233907f2da466a7b24304f47e87fa2e1e5a81b9831ce54fec19055ce277ca2f39ba42c49060200160405180910390a2565b6001546001600160a01b0316331461031a5760405162461bcd60e51b815260206004820152600e60248201526d139bdd08185d5d1a1bdc9a5e995960921b6044820152606401610220565b6003548111156103615760405162461bcd60e51b8152602060048201526012602482015271496e73756666696369656e742066756e647360701b6044820152606401610220565b8060035f828254610372919061077f565b90915550506001546040516001600160a01b039091169082156108fc029083905f818181858888f193505050501580156103ae573d5f803e3d5ffd5b5060405181815233907f67ba03b899c1b0009c08c2717653a5a03a8730cc17a1a8c0c57b4728991672f39060200160405180910390a250565b5f546001600160a01b0316331461042e5760405162461bcd60e51b815260206004820152600b60248201526a139bdd08185b1b1bddd95960aa1b6044820152606401610220565b856104705760405162461bcd60e51b815260206004820152601260248201527110db185a5b481b9bdd08185c1c1c9bdd995960721b6044820152606401610220565b5f8061047f60208a018a610792565b81019061048c91906107d5565b915091508060035410156104e25760405162461bcd60e51b815260206004820152601960248201527f496e73756666696369656e7420657363726f772066756e6473000000000000006044820152606401610220565b8060035f8282546104f3919061077f565b90915550506001600160a01b0382165f908152600460205260408120805483929061051f90849061076c565b90915550506040516001600160a01b0383169082156108fc029083905f818181858888f19350505050158015610557573d5f803e3d5ffd5b50816001600160a01b03167ff42cf8c29487b42c009006cba2a2a0ca0388229f3183e6e957e0a0b163585cb48260405161059391815260200190565b60405180910390a2505050505050505050565b6001600160a01b03811681146105ba575f80fd5b50565b5f602082840312156105cd575f80fd5b81356105d8816105a6565b9392505050565b5f8083601f8401126105ef575f80fd5b50813567ffffffffffffffff811115610606575f80fd5b60208301915083602082850101111561061d575f80fd5b9250929050565b8060408101831015610634575f80fd5b92915050565b5f8083601f84011261064a575f80fd5b50813567ffffffffffffffff811115610661575f80fd5b6020830191508360208260051b850101111561061d575f80fd5b5f805f805f805f60c0888a031215610691575f80fd5b873567ffffffffffffffff8111156106a7575f80fd5b88016080818b0312156106b8575f80fd5b9650602088013580151581146106cc575f80fd5b9550604088013567ffffffffffffffff8111156106e7575f80fd5b6106f38a828b016105df565b909650945061070790508960608a01610624565b925060a088013567ffffffffffffffff811115610722575f80fd5b61072e8a828b0161063a565b989b979a50959850939692959293505050565b5f60208284031215610751575f80fd5b5035919050565b634e487b7160e01b5f52601160045260245ffd5b8082018082111561063457610634610758565b8181038181111561063457610634610758565b5f808335601e198436030181126107a7575f80fd5b83018035915067ffffffffffffffff8211156107c1575f80fd5b60200191503681900382131561061d575f80fd5b5f80604083850312156107e6575f80fd5b82356107f1816105a6565b94602093909301359350505056fea2646970667358221220784f51dc6d9ec02e38abafb708274023889626203d9c45e463f5b96371f6230264736f6c634300081a0033",
    "linkReferences": {}
  },
  "methodIdentifiers": {
    "afterTaskSubmission((string,bytes,address,uint16),bool,bytes,uint256[2],uint256[])": "dd1a5387",
    "attestationCenter()": "d92807a2",
    "beforeTaskSubmission((string,bytes,address,uint16),bool,bytes,uint256[2],uint256[])": "502f5bd0",
    "depositToEscrow()": "3eb5241d",
    "getEscrowBalance()": "c56e610e",
    "insuranceCompany()": "d78f51b9",
    "providerBalances(address)": "28ac7f2c",
    "stakingPool()": "0c56ae3b",
    "totalEscrowBalance()": "fe74edbd",
    "withdrawEscrow(uint256)": "876512d0"
  },
  "id": 6
}